:1000000047C0000066C0000064C0000062C000007D
:1000100060C000005EC000005CC000005AC000006C
:1000200058C0000056C0000054C0000052C000007C
:1000300050C000004EC000004CC000004AC000008C
:1000400048C0000046C0000044C0000042C000009C
:1000500040C000003EC000003CC000003AC00000AC
:1000600038C0000036C0000034C0000032C00000BC
:1000700030C000002EC00000BDC000002AC000003B
:1000800028C0000026C0000024C0000022C00000DC
:1000900011241FBECFEFCDBFDFE7DEBF8091400050
:1000A00080934000811105C098ED21E094BF20931A
:1000B00041008CBB88ED90E484BF9093100120E652
:1000C000A0E0B0E601C01D92A430B207E1F7AED0C7
:1000D00030C196CF9FB7F894E0912A0BF0912B0B8B
:1000E0008091260B20910060309101604091026068
:1000F000509103609FBF80FF08C0CF018827892BE4
:1001000021F42F5F3F4F4F4F5F4F0F01169407941D
:10011000169407941694079416940794F001169475
:100120000794E00DF11D16940794102C16940118F5
:100130001694010C169401181694010C16940118CB
:1001400016941694010C1124E019F109A8EEB3E0FD
:10015000D7D06E0F7F1F811D911D0895CF92DF9222
:10016000EF92FF92CF93DF93B5DFEB0188EEC82EBD
:1001700083E0D82EE12CF12CADDF6C1B7D0B683EAB
:100180007340D0F381E0C81AD108E108F108C851E2
:10019000DC4FC114D104E104F10471F7DF91CF9178
:1001A000FF90EF90DF90CF90089590E281111BC0F7
:1001B0009093A6049091A00495FD0AC09FB7F8946F
:1001C000811114C08091B504877F8093B5049FBFCF
:1001D0008091E7058770853029F48091010A8F7B33
:1001E0008093010A08959093A504E4CF8091B5040B
:1001F0008860EBCFEF93FF93E0E0F0E68F938FB74B
:100200008F9380818F5F808381818F4F81838281F3
:100210008F4F828383818F4F838381E08093260B6E
:100220008F918FBF8F91FF91EF91189588ED94E298
:1002300084BF9093680021E02093030A9EEF90937F
:10024000260A9093270A8BE08093000A85E080932A
:10025000E7051092E80537E03093010B90930C0B03
:1002600010920D0B8093000B3093110B90931C0B8D
:1002700010921D0B8093100B4FEF5FE04093AA0B81
:100280005093AB0B90E89093820B1092810B4BEF45
:1002900053E04093AE0B5093AF0B91E79093800BDC
:1002A0001092E905809302069EE09093050690E681
:1002B00090930306809300068091B000887F85604C
:1002C0008093B0008091B200887F85608093B200F7
:1002D0008FED9EE280932C0B90932D0B2093250B9A
:1002E0001092210B83E08093200B789480E280931E
:1002F000A10481E05ADF32DF80E057DF2FDFF9CF42
:1003000009D0A59F900DB49F900DA49F800D911DC5
:1003100011240895A29FB001B39FC001A39F700D47
:10032000811D1124911DB29F700D811D1124911DFD
:060330000895F894FFCFD0
:00000001FF
